:100000000C9463000C94B40F0C94E10F0C948B00CF
:100010000C948B000C948B000C948B000C948B0034
:100020000C948B000C948B000C948B000C948B0024
:100030000C948B000C948B000C948B000C948B0014
:100040000C94B80E0C948B000C941A130C945D1342
:100050000C948B000C948B000C948B000C948B00F4
:100060000C948B000C948B00000000070002010030
:100070000003040600000000000000000102040864
:100080001020408001020408102001020408102002
:10009000040404040404040402020202020203032E
:1000A00003030303000000002300260029000000D2
:1000B0000000250028002B0000000000240027007D
:1000C0002A00D30C1C1411241FBECFEFD8E0DEBFD2
:1000D000CDBF13E0A0E0B1E0E8E0FAE202C0059095
:1000E0000D92AE33B107D9F727E0AEE3B3E001C01C
:1000F0001D92A732B207E1F710E0C3E6D0E004C0DA
:100100002197FE010E94E414C136D107C9F70E946D
:1001100073120C9402150C940000DC01FB01129682
:100120008C911297808313968C91139781831496E8
:100130008C911497828315968C91159783831696CC
:100140008C911697848317968C91179785831896B0
:100150008C911897868319968C91878388E090E01C
:100160000895FC01DB014C9150E060E070E04283B7
:1001700053836483758311968C911197582B428316
:1001800053836483758312968C911297682B4283F4
:1001900053836483758313968C911397782B4283D2
:1001A00053836483758314964C91149750E060E0F8
:1001B00070E0468357836087718715968C911597F9
:1001C000582B468357836087718716968C911697B4
:1001D000682B468357836087718717968C91782B9D
:1001E000468357836087718788E090E0089586E1B1
:1001F00091E0089584E291E0089585E491E0089506
:100200008EE591E008958FE791E0089582E991E00D
:10021000089581E193E0089583EB91E00895FC0156
:1002200022818381FB012083818382E090E0089515
:10023000FB0120813181FC013383228382E090E045
:10024000089584ED91E0089583EE91E00895DC0136
:10025000FB0112964C91129713962C9113971496BA
:100260009C91149715968C9140832183928383836C
:1002700084E090E00895FB014081518162817381A7
:10028000FC01428353836483758384E090E0089586
:1002900084E092E0089583E192E008950F931F9324
:1002A000CF93DF938C01EC012696CE010E941801BA
:1002B000D8011A96ED91FC911B97CE01DF91CF9159
:1002C0001F910F910994FC0184859585089584ED13
:1002D00091E0089583EE91E008958A549D4FFC01CA
:1002E00080810895CF93DF93809104010E948F0E47
:1002F000EC01809106010E948F0E892B89F080917C
:10030000620690916306892B91F0209781F4809189
:100310005C0690915D06019690935D0680935C0665
:10032000D0936306C0936206DF91CF9108958091C8
:10033000620690916306892B99F7209789F3809143
:100340006006909161060196909361068093600625
:10035000E7CFCF93DF93809102010E948F0EEC01D3
:10036000809100010E948F0E20915E0630915F0601
:10037000CD2B29F0232B39F4009761F404C0232BF3
:1003800011F0009739F090935F0680935E06DF913D
:10039000CF91089520915C0630915D062F5F3F4F0D
:1003A00030935D0620935C06EECFAF92BF92CF9262
:1003B000DF92EF92FF920F931F93CF93DF9300D0C2
:1003C00000D01F92CDB7DEB7643671053CF0FC015A
:1003D000EA54FD4F2081222309F477C0DA017B0122
:1003E0008C01BC01695C7E4FED91FC910190F08124
:1003F000E02DCA010995680120EDC21A2EEFD20A3C
:100400002FEFD6012C93F801EF5CFE4F2EEF2083E7
:1004100031968083319690833196292F280F20952D
:1004200020833196E0821696FC9245E050E020E071
:1004300030E0DC011696A417B50734F06191260F61
:10044000311D4F5F5F4FF7CF7C01B8E0EB0EF11C21
:10045000800F911FFC01E95CFE4F20952083E9E1AC
:10046000EE16E1E0FE06BCF45601C5018C199D09AB
:100470008E159F056CF5D80112968D919C9113975E
:10048000F50161915F01DC01ED91FC910190F0813A
:10049000E02D0995EACF8FEC92E09A83898383E07F
:1004A0008B8384E392E09D838C83D801ED91FC9152
:1004B0000190F081E02DAE014F5F5F4F67E070E08B
:1004C000C80109958FEF9FEF04C080E090E001C064
:1004D000C7010F900F900F900F900F90DF91CF9169
:1004E0001F910F91FF90EF90DF90CF90BF90AF9052
:1004F0000895AB01FC01A681B78164817581ED91FE
:10050000FC9111970190F081E02DCD010994CF93DA
:10051000DF93EC01862F688379835B834A8361E0F4
:100520000E94240E61E08A81DF91CF910C94240E09
:100530000F931F93CF93DF938C01EB0177FF11C0D3
:1005400060E0F80180810E94600E662777276C1BAF
:100550007D0BF8018281DF91CF911F910F910C9457
:100560001412FC0180810E94141260E0F801828163
:100570000E94600E209721F3DF91CF911F910F9180
:100580000895FC016281738188E696E00C949802DC
:10059000FC016281738184E696E00C94980240919C
:1005A0007E0350917F03609180037091810380915D
:1005B0007C0390917D030E9498131092270610925D
:1005C0002606109229061092280610922D061092E7
:1005D0002C0610922B0610922A06A2ECB5E0FD0123
:1005E00080E090E021913191232BB1F4FC01EE0FDA
:1005F000FF1FEE53FA4F2EE433E0318320838358FC
:100600009F4F90935303809352038AE793E0909314
:1006100055038093540304C001968931910511F765
:1006200080E090E02D913D91232BB1F4FC01EE0F81
:10063000FF1FEE53FA4F2EE333E0318320838358BC
:100640009F4F90934303809342038AE793E09093F4
:1006500045038093440304C001968931910511F745
:10066000A4EFB5E0FD0180E090E021913191232BD2
:1006700081F4FC01EE0FFF1FEC50FA4F2CE633E043
:10068000318320838C599F4F90936F0380936E0327
:1006900004C001968931910541F780E090E02D91E9
:1006A0003D91232B81F4FC01EE0FFF1FEC50FA4F1C
:1006B0002EE533E0318320838C599F4F9093610363
:1006C0008093600304C001968931910541F760E091
:1006D000809106010E94240E60E0809104010E9436
:1006E000240E60E0809102010E94240E60E080915F
:1006F00000010E94240E1092610610926006109272
:100700005D0610925C06809104010E948F0E90930A
:10071000630680936206809100010E948F0E909381
:100720005F0680935E0641E050E062E771E082E0A0
:100730000E94940F41E050E062E771E083E00E9484
:10074000940F41E050E069EA71E082E10E94940F69
:1007500041E050E069EA71E083E10C94940FCF929C
:10076000DF92EF92FF9220E030E06A017B01022EDF
:1007700004C0F694E794D794C7940A94D2F7FC0186
:10078000C192CF01285F3F4F2032310571F7FF90B2
:10079000EF90DF90CF9008954F925F926F927F928B
:1007A000AF92BF92CF92DF92EF92FF920F931F937F
:1007B000CF93DF93EC018B018A81FB0180838B81D6
:1007C00081838C8182838D818383DB0140E050E0D3
:1007D000BA01E4E0F0E01496CA80DB80EC80FD8092
:1007E000CF0104964C155D056E057F05C8F42A857A
:1007F0003B85E20FF31F3497D080F1803281238153
:10080000DC921196FC92119712963C9312971396D4
:100810002C931397FC014F5F5F4F6F4F7F4FDBCFE0
:100820005F01A00EB11E2C85F50120832D8521834B
:100830002E8522832F852383D50140E050E0BA0125
:10084000CC84DD84EE84FF849C012C5F3F4F4C15EB
:100850005D056E057F05F8F4CD018A199B09EC88CA
:10086000FD888E0D9F1DFC01D080E180F280838188
:100870001496DC9214971596EC9215971696FC92A6
:10088000169717968C931797C9014F5F5F4F6F4F5D
:100890007F4F1496D5CFF801E80FF91F8E8980831A
:1008A0008F898183888D8283898D83837901A12CAF
:1008B000B12C412C512C32018E899F89A88DB98D84
:1008C000481659066A067B0680F5EC8DFD8DEA0D0B
:1008D000FB1DA081B181FD0101900020E9F7319756
:1008E0006F01CA1ADB0AA60160E070E0C8018E0D34
:1008F0009F1D0E94AF03F4E0EF0EF11CEC8DFD8D07
:10090000EA0DFB1D60817181A601C8018E0D9F1D3E
:100910000E94F914EC0CFD1C8FEF481A580A680A63
:10092000780AE2E0AE0EB11CC7CFC701DF91CF91CC
:100930001F910F91FF90EF90DF90CF90BF90AF90FD
:100940007F906F905F904F900895EF92FF920F937A
:100950001F93CF93DF938C017B01DC0112962C91C6
:100960001297FB012193CF011396ED91FC911497FF
:10097000EF0109900020E9F72197CE1BDF0BAE01B4
:1009800060E070E00E94AF03D80113966D917C91F6
:100990001497AE01C70105960E94F914CE01059681
:1009A000DF91CF911F910F91FF90EF900895CF921B
:1009B000DF92EF92FF920F931F93CF93DF937C010F
:1009C0008B01DC0112968C911297FB0180831396A8
:1009D0008C91139781831496ED91FC911597EF01FB
:1009E00009900020E9F72197CE1BDF0BAE0160E0F4
:1009F00070E0C80102960E94AF03D70114966D9172
:100A00007C911597AE01C80106960E94F914CE019B
:100A10000696F701A681B781FD0101900020E9F754
:100A200031976F01CA1ADB0AA60160E070E0800FFF
:100A3000911F0E94AF032A96D70116966D917C9163
:100A40001797A601C8018C0F9D1F0E94F914CC0DA9
:100A5000DD1DD7011896ED91FC911997DF010D90DE
:100A60000020E9F711976D01CE1ADF0AA60160E0B8
:100A700070E0C8018C0F9D1F0E94AF032496F70100
:100A800060857185A601C8018C0F9D1F0E94F91415
:100A9000C6018C0F9D1FD7011A966C911A971B9651
:100AA0004C911B971C963C911C971D962C91F8011C
:100AB000E80FF91F60834183328323830496DF911B
:100AC000CF911F910F91FF90EF90DF90CF900895FD
:100AD000CF92DF92EF92FF92FC011082118212827C
:100AE0001382DB0120E030E04D9150E0022E02C085
:100AF000440F551F0A94E2F7052E000C660B770B86
:100B0000C080D180E280F3804C295D296E297F2945
:100B10004083518362837383285F3F4F20323105C6
:100B200019F7FF90EF90DF90CF9008954F925F926A
:100B30006F927F928F929F92AF92BF92EF92FF92AD
:100B40000F931F93CF93DF9300D000D0CDB7DEB7C4
:100B50007C018B01FB018191BF01F7018283CE01F2
:100B600001960E94680589819A81AB81BC814C0104
:100B70005D01F5E08F0E911CA11CB11CA8014C5F1A
:100B80005F4FFA0125E030E02901612C712C4814F7
:100B900059046A047B0428F4618161932F5F3F4FFD
:100BA000F3CFF801E80FF91F1482F7015483438350
:100BB00005960F900F900F900F90DF91CF911F919E
:100BC0000F91FF90EF90BF90AF909F908F907F908C
:100BD0006F905F904F9008954F925F926F927F92C7
:100BE0008F929F92AF92BF92CF92DF92EF92FF923D
:100BF0000F931F93CF93DF93CDB7DEB72C970FB62C
:100C0000F894DEBF0FBECDBF7C018B01DB018C9160
:100C100090E0F7019383828311962C91922B93831A
:100C200082836E5F7F4FCE0109960E94680589849A
:100C30009A84AB84BC8424013501F6E04F0E511C2C
:100C4000611C711C98012B5F3F4FF90186E090E019
:100C5000AC0160E070E0441555056605770520F4A9
:100C6000418141930196F4CFF801E80DF91D1582F9
:100C7000D70115963C932E931497B4016A5F7F4F6A
:100C8000600F711FCE0105960E946805BAE08B0EB9
:100C9000911C4D805E806F807884A401092C000C2B
:100CA000660B770B440D551D661D771DD801A80DE9
:100CB000B91DCD01801B910B5C01C12CD12CA41658
:100CC000B506C606D70628F48D91FD0132978083BC
:100CD000F0CF5401A40CB51CB8016A0D7B1DFB01BB
:100CE00031971082C4010197800F911FF7019783FC
:100CF0008683CE0101960E94680595012C5F3F4FC7
:100D000089819A81AB81BC812901032E000C660880
:100D10007708480E591E6A1E7B1EF5013396E00FB8
:100D2000F11FA9014A01A12CB12C84149504A60439
:100D3000B70428F4618161934F5F5F4FF3CF820F57
:100D4000931FF801E80FF91FDF0111971C92215042
:100D50003109020F131FD70119961C930E93189790
:100D60002181428150E060E070E0BA0155274427BC
:100D7000522B2081422B2381722BF701428753870C
:100D80006487758704962C960FB6F894DEBF0FBE65
:100D9000CDBFDF91CF911F910F91FF90EF90DF902A
:100DA000CF90BF90AF909F908F907F906F905F900B
:100DB0004F9008952F923F924F925F926F927F9241
:100DC0008F929F92AF92BF92CF92DF92EF92FF925B
:100DD0000F931F93CF93DF93CDB7DEB760970FB616
:100DE000F894DEBF0FBECDBF8C016B01DB018D908F
:100DF0009D90AD90BC90FC0182819381A481B581CE
:100E000088159905AA05BB0570F4B401660F771F14
:100E1000660F771F828593850E940E10D8011B965E
:100E20009C938E931A97F80182829382A482B58252
:100E30009601812C912C540144E050E0B8016A5F86
:100E40007F4F2C5F3F4FF80182819381A481B58150
:100E5000FA0134961F0188169906AA06BB0650F5BA
:100E6000D9011196FC90119712968C9190E0A0E018
:100E7000B0E0DC01992788279F29F901F0808F29AC
:100E8000F380BF29F80186839783A087B187DA01B1
:100E9000A101149782859385A80FB91F84E0FB01F7
:100EA00001900D928A95E1F7FFEF8F1A9F0AAF0A22
:100EB000BF0AC7CF4601840E951ED4018C911196AE
:100EC0009C91119712964C901297512C612C712C79
:100ED000320155244424592A482A13968C91782AA1
:100EE0005F01F80184859585A685B78584159505EC
:100EF000A605B70570F4B201660F771F660F771F5E
:100F0000848995890E940E10D80155969C938E93E2
:100F10005497F8014486558666867786C401412C2D
:100F2000512C32019801205F3F4FD8011C964D9102
:100F30005D916D917C911F97F5013496441655068D
:100F40006606770698F5DC011596FC9015971696BF
:100F50004C91169750E060E070E0BA0155274427A5
:100F60005F291496FC9014974F291796FC907F29BF
:100F7000D80150964D935D936D937C9353975F0189
:100F8000AC014819590954960D90BC91A02DA40F9D
:100F9000B51F44E0F90101900D924A95E1F7BFEFCA
:100FA0004B1A5B0A6B0A7B0A0496BFCFD601AA0DC7
:100FB000BB1D8C9111969C91119712968C90129753
:100FC000912CA12CB12C540199248824992A882A87
:100FD00013968C91B82A7F01F80186899789A08D94
:100FE000B18D88159905AA05BB0560F4B401660F9B
:100FF000771F848D958D0E940E10D8015D969C936D
:101000008E935C97F801868A978AA08EB18E212CE8
:10101000312C812C912C54019801265E3F4F3A8748
:101020002987F80186899789A08DB18D8816990640
:10103000AA06BB0608F05FC0B6016E0D7F1DCE018B
:1010400001960E94680597012C5F3F4F388B2F87D0
:1010500049815A816B817C81C901330FAA0BBB0B7B
:101060002C013D01440E551E661E771E4B865C8684
:101070006D867E8623E0E20EF11CF601EE0DFF1D6B
:101080002F853889C901A0E0B0E04B845C846D8471
:101090007E8484159505A605B70528F4A181A19342
:1010A0002F5F3F4FEFCF6F847888460D571DF601B5
:1010B000E40FF51F31971082C30101978C0D9D1D20
:1010C000D8015B969C938E935A977A015C96ED912A
:1010D000FC915D97E20DF31DA985BA858D919C91D8
:1010E00091838083BFEF8B1A9B0AAB0ABB0AE2E0B5
:1010F0002E0E311C96CFC70160960FB6F894DEBF56
:101100000FBECDBFDF91CF911F910F91FF90EF9058
:10111000DF90CF90BF90AF909F908F907F906F9017
:101120005F904F903F902F9008950F931F93CF9310
:10113000DF93CDB7DEB72A970FB6F894DEBF0FBEA8
:10114000CDBF8C0187EB92E09A8389831B821C823E
:101150001D821E821F82188619861A86D801ED917B
:10116000FC910190F081E02DAE014F5F5F4F6AE08E
:1011700070E0C80109950E94020FF801608771872D
:10118000828793872A960FB6F894DEBF0FBECDBF35
:10119000DF91CF911F910F9108954F925F926F92BF
:1011A0007F92AF92BF92CF92DF92EF92FF920F9316
:1011B0001F93CF93DF93CDB7DEB72E970FB6F8947A
:1011C000DEBF0FBECDBF8C0183EC92E09A83898392
:1011D0001C821B828CE692E09E838D8398878F838E
:1011E0009A8789871B861C861D861E86680188EB68
:1011F000C81A8DEFD80A7801A6E8EA1AADEFFA0A04
:1012000098E1492E55245394612C712CD601ED910F
:10121000FC913097A9F1848195819C838B83808197
:1012200091819E838D8382819381DC01ED91FC917C
:101230000480F581E02D099598878F83D601ED9183
:10124000FC9182819381DC01ED91FC910680F78114
:10125000E02D09959A8789874B865C866D867E8608
:10126000D601ED91FC9160857185D801ED91FC91DD
:101270000190F081E02DAE014F5F5F4FC8010995ED
:10128000B2E0CB0ED11CCE14DF0409F0BFCF680151
:10129000E4E5CE1AEDEFDE0A88E1482E552453949A
:1012A000612C712CF701A081B1811097E1F11296A8
:1012B0008D919C9113979C838B8314968D919C9117
:1012C00015979E838D83ED91FC9111970480F58194
:1012D000E02DCD01099598878F83D7018D919C9141
:1012E000DC01ED91FC910680F781E02D09959A874C
:1012F00089874B865C866D867E86D801ED91FC9150
:10130000A080B180F70180819181DC01ED91FC9199
:101310000280F381E02D0995AE014F5F5F4FBC0164
:10132000C801F5010995F2E0EF0EF11CCE14DF04BF
:1013300009F0B8CFF801EA54FD4F81E080832E9682
:101340000FB6F894DEBF0FBECDBFDF91CF911F91D6
:101350000F91FF90EF90DF90CF90BF90AF907F9074
:101360006F905F904F9008958F929F92AF92BF922F
:10137000CF92DF92EF92FF920F931F93CF93DF9361
:10138000CDB7DEB72A970FB6F894DEBF0FBECDBF3C
:101390008C015B0187EB92E09A8389831B821C821C
:1013A0001D821E821F82188619861A860E94020FCD
:1013B000F801C084D184E284F3849B01AC012C1930
:1013C0003D094E095F0969017A01B501CE01019617
:1013D0000E94B10088EE882E83E0982EA12CB12CBB
:1013E000C701B601A50194010E94A314CB80DC8043
:1013F000ED80FE80C20ED31EE41EF51ECB82DC8281
:10140000ED82FE829B01AC0160E472E48FE090E02B
:101410000E947F14CF80D884E984FA84DC01CB0158
:101420008C0D9D1DAE1DBF1D8F839887A987BA8720
:101430000E94020FCB80DC80ED80FE8031E0C31A79
:10144000D108E108F108A50194010E94A314C21A71
:10145000D30AE40AF50AF801C486D586E686F7863B
:10146000CF80D884E984FA84F6E3DF1AF5E6EF0A40
:10147000F4ECFF0A9B01AC0160E472E48FE090E0C1
:101480000E947F14C61AD70AE80AF90AF801C08A2E
:10149000D18AE28AF38AB801605F7F4FC8010C9657
:1014A0000E94CD0D0E94020FF801E554FD4F6083AC
:1014B0007183828393832A960FB6F894DEBF0FBEA2
:1014C000CDBFDF91CF911F910F91FF90EF90DF90F3
:1014D000CF90BF90AF909F908F9008952F923F92A2
:1014E0004F925F926F927F928F929F92AF92BF9234
:1014F000CF92DF92EF92FF920F931F93CF93DF93E0
:10150000CDB7DEB760970FB6F894DEBF0FBECDBF84
:10151000988B8F870E94020F4B015C012F853889C1
:1015200025543D4F3E832D83F90180819181A28115
:10153000B381A5019401281B390B4A0B5B0BDA011F
:10154000C901893F9A42A105B10528F0EF85F889C4
:10155000EA54FD4F10820F85188904551D4FD8019C
:101560008D919C91892B81F0EF85F889E154FD4F95
:1015700080819181A281B38188159905AA05BB0557
:1015800018F4F801118210826F847888FCE46F1AD5
:10159000FDEF7F0A2F85388920553D4F3A832983F7
:1015A000CF84D88838E1C30ED11C4F8558894A545E
:1015B0005D4F58874F838F8598898C539D4F9A87AD
:1015C0008987AF85B889AD53BD4FBC87AB87EF84A2
:1015D000F888B2E5EB1ABDEFFB0AEF85F889EE5407
:1015E000FD4FFC83EB832F85388921543D4F3E8787
:1015F0002D871401250134E1230E311C411C511C9F
:10160000EF85F88984899589A689B789892B8A2BE2
:101610008B2B89F4AF85B88912968D919C91139785
:10162000DC01ED91FC910680F781E02D09959C018C
:1016300097FF15C03CC10E94020FDC01CB01881945
:101640009909AA09BB09EF85F88924893589468952
:101650005789281739074A075B07E0F650C1D301BD
:101660008D919C911197820F931F8D939C93F801FC
:101670004081518147305105D9F4AB81BC818D91B6
:101680009C911197AC014F5F5F4F4D935C93EF8539
:10169000F889E80FF91F208FF70180819181019768
:1016A00091838083892B09F0ABCF88E090E06FC0F5
:1016B0004115510529F52F3F310569F481E090E08E
:1016C000F80191838083AD85BE852D923D924D9228
:1016D0005C92139795CF0E94020FDC01CB01881911
:1016E0009909AA09BB0989389341A105B10508F4F4
:1016F00087CF2F8538892A543D4FD9011C92FFC0CE
:101700004130510591F42E3F310519F482E090E00B
:101710002EC011821082EF81F8858081811170CFF7
:101720008F8598890E9495086BCF4230510581F4CE
:10173000D7012D933C93EB81FC811182108283E0D1
:1017400090E0D8018D939C93F3013183208358CF8F
:101750004330510581F4322F2227D7018D919C917E
:101760001197280F391F2D933C9384E090E0F801E6
:101770009183808345CF4430510589F460E071E066
:101780000E948F148F3F910531F485E090E0D801DD
:101790008D939C9335CFF8011182108231CF453063
:1017A000510569F4A981BA812D933C9346E050E03C
:1017B000F80151834083D3012D933C9321CF4630D0
:1017C000510599F4322F2227E981FA818081918194
:1017D000280F391F31832083E7E0F0E0D801ED9333
:1017E000FC93D7018D919C915DCF4830510509F054
:1017F00007CFF8011182108260E071E00E948F141F
:101800008F3F910509F0FCCEA981BA818D919C9101
:101810000097C9F48F8598890E9495088F859889CB
:101820000E94CD08EF85F889E954FD4F80829182AE
:10183000A282B382ED81FE8180829182A282B382F4
:101840008FEF9FEF61C08A30910531F4B6018F852B
:1018500098890E94B409D4CE8630910551F4B6011E
:1018600089859A850E94DA0681E0AB85BC858C93D8
:10187000C7CE8B30910521F4EF81F8851082C0CE60
:10188000FC01E752FF4FEE0FFF1F2F853889E20F53
:10189000F31F80819181009709F4B2CEDC01ED91B4
:1018A000FC910190F081E02DB6010995A9CEEF855C
:1018B000F889EA54FD4F8081882321F10F8518892A
:1018C00009541D4FF80180819181A281B381A50146
:1018D0009401281B390B4A0B5B0BDA01C901853CCB
:1018E0009940A105B10570F08F8598890E949508EF
:1018F000D8018D929D92AD92BC92139703C08EEF4A
:101900009FEF02C080E090E060960FB6F894DEBFD3
:101910000FBECDBFDF91CF911F910F91FF90EF9040
:10192000DF90CF90BF90AF909F908F907F906F90FF
:101930005F904F903F902F90089580916006909116
:101940006106092E000CAA0BBB0B80935A039093DF
:101950005B03A0935C03B0935D0368E573E08EE4E2
:1019600093E00E94790280915C0690915D06092EB9
:10197000000CAA0BBB0B80934A0390934B03A093DC
:101980004C03B0934D0368E473E08EE393E00E9450
:1019900079028AE793E00E946E0A61E070E080E0DD
:1019A00090E00C94330F40910E0150910F01609123
:1019B0000C0170910D0188E696E00E94870240912B
:1019C0000A0150910B01609108017091090184E6B0
:1019D00096E00E9487028FEF92E090937B038093C2
:1019E0007A0389E796E090937D0380937C0380E0FF
:1019F00091EEA0E0B0E080937E0390937F03A093EC
:101A00008003B0938103109230068BED92E09093A7
:101A10003F0680933E0610924006109241061092B7
:101A20004206109243061092490610924806109200
:101A30004A0610924B0610924C0610924D061092D8
:101A400053061092520610925406109255061092A8
:101A500056061092570610925B0610925A0682ECB8
:101A600095E0E4EFF5E0DC011D921D92EA17FB071B
:101A7000D9F726E236E0119211922E173F07D9F7D7
:101A8000A2E9B3E0EAEAF4E01D92EA17FB07E1F706
:101A900011928E179F07E1F710928E0310928F0319
:101AA000109290031092910349E053E050936D031C
:101AB00040936C0327EE32E030937303209372035C
:101AC000109275031092740381EC92E09093770367
:101AD0008093760381E090E090937903809378037C
:101AE0006DE672E0709371036093700350935F032F
:101AF00040935E0330936503209364031092670361
:101B00001092660328EC32E0309369032093680357
:101B100090936B0380936A038CE792E09093630346
:101B20008093620383EF92E090935903809358036C
:101B300010925A0310925B0310925C0310925D03A3
:101B40002EE832E030934F0320934E0328E533E034
:101B50003093510320935003109257031092560371
:101B6000909349038093480310924A0310924B03C9
:101B700010924C0310924D038FE992E090933F0333
:101B800080933E0388E493E0909341038093400365
:101B900010924703109246030895CF92DF92EF927E
:101BA000FF920F931F93CF93DF938C01EB0168811A
:101BB00079818A819B8120E03AEC4AE95BE30E94CB
:101BC000A314F801C080D180E280F380C20ED31E3E
:101BD000E41EF51EC082D182E282F382688379839B
:101BE0008A839B83DF91CF911F910F91FF90EF909C
:101BF000DF90CF900895833081F028F4813099F000
:101C00008230A1F008958630A9F08730B9F0843091
:101C1000D1F4809180008F7D03C0809180008F7708
:101C200080938000089584B58F7702C084B58F7D3E
:101C300084BD08958091B0008F7703C08091B0007B
:101C40008F7D8093B0000895CF93DF9390E0FC01E7
:101C5000E458FF4F2491FC01E057FF4F8491882303
:101C600061F190E0880F991FFC01E854FF4FC59186
:101C7000D491FC01E255FF4FA591B491611109C0C7
:101C80009FB7F8948881209582238883EC912E2336
:101C90000BC0623061F49FB7F8948881322F309581
:101CA00083238883EC912E2B2C939FBF06C08FB784
:101CB000F894E8812E2B28838FBFDF91CF91089570
:101CC0001F93CF93DF93282F30E0F901E859FF4F9E
:101CD0008491F901E458FF4FD491F901E057FF4F87
:101CE000C491CC23C1F0162F81110E94FB0DEC2F63
:101CF000F0E0EE0FFF1FE255FF4FA591B4919FB7A3
:101D0000F894111104C08C91D095D82302C0EC91A5
:101D1000DE2BDC939FBFDF91CF911F910895CF936E
:101D2000DF93282F30E0F901E859FF4F8491F90142
:101D3000E458FF4FD491F901E057FF4FC491CC23F1
:101D400091F081110E94FB0DEC2FF0E0EE0FFF1FD0
:101D5000EC55FF4FA591B491EC91ED2381E090E01B
:101D600021F480E002C080E090E0DF91CF910895FF
:101D70001F920F920FB60F9211242F933F938F93C0
:101D80009F93AF93BF9380916D0690916E06A09143
:101D90006F06B091700630916C0623E0230F2D374B
:101DA00020F40196A11DB11D05C026E8230F02965F
:101DB000A11DB11D20936C0680936D0690936E0655
:101DC000A0936F06B0937006809171069091720691
:101DD000A0917306B09174060196A11DB11D809368
:101DE000710690937206A0937306B0937406BF9128
:101DF000AF919F918F913F912F910F900FBE0F90B8
:101E00001F9018952FB7F89460916D0670916E062B
:101E100080916F06909170062FBF08953FB7F89498
:101E20008091710690917206A0917306B09174062C
:101E300026B5A89B05C02F3F19F00196A11DB11D25
:101E40003FBFBA2FA92F982F8827820F911DA11D60
:101E5000B11DBC01CD0142E0660F771F881F991F9D
:101E60004A95D1F70895CF92DF92EF92FF92CF93E8
:101E7000DF936B017C010E940E0FEB01C114D104B2
:101E8000E104F10479F00E940E0F6C1B7D0B683E9B
:101E90007340A0F381E0C81AD108E108F108C851E5
:101EA000DC4FECCFDF91CF91FF90EF90DF90CF90A0
:101EB0000895789484B5826084BD84B5816084BDC2
:101EC00085B5826085BD85B5816085BDEEE6F0E0B3
:101ED000808181608083E1E8F0E01082808182600F
:101EE0008083808181608083E0E8F0E08081816090
:101EF0008083E1EBF0E0808184608083E0EBF0E0C0
:101F0000808181608083EAE7F0E080818460808363
:101F1000808182608083808181608083808180680D
:101F200080831092C10008958230E8F4E82FF0E039
:101F3000EE0FFF1FEB58F94F71836083813041F042
:101F4000809169008C7F482B40936900E89A08953E
:101F500080916900837F440F551F440F551F482B04
:101F600040936900E99A08951F920F920FB60F925D
:101F700011242F933F934F935F936F937F938F938E
:101F80009F93AF93BF93EF93FF93809175069091CA
:101F90007606892B29F0E0917506F0917606099571
:101FA000FF91EF91BF91AF919F918F917F916F9131
:101FB0005F914F913F912F910F900FBE0F901F9007
:101FC00018951F920F920FB60F9211242F933F93E3
:101FD0004F935F936F937F938F939F93AF93BF9331
:101FE000EF93FF938091770690917806892B29F0E3
:101FF000E0917706F09178060995FF91EF91BF91F6
:10200000AF919F918F917F916F915F914F913F9190
:102010002F910F900FBE0F901F9018956F927F9287
:102020008F929F92AF92BF92CF92DF92EF92FF92E8
:102030000F931F93CF93DF93009789F4CB01DF9128
:10204000CF911F910F91FF90EF90DF90CF90BF90B5
:10205000AF909F908F907F906F900C94F310FC0145
:10206000E60FF71F9C0122503109E217F30708F42D
:10207000A9C0EC01D9010D911C9111970617170702
:10208000B0F00530110508F49BC0C801049786170D
:10209000970708F495C002501109061B170B01930E
:1020A00011936D937C93CF010E948B1189C05B01CA
:1020B000A01AB10A4C01800E911EA0912507B09183
:1020C0002607612C712CE12CF12C109709F446C0E5
:1020D0008D919C911197A815B905B1F56C0142E05D
:1020E000C40ED11CCA14DB0478F14C018A189B0879
:1020F000640142E0C40ED11C1296BC901297139654
:10210000AC91B5E0CB16D10440F0B282A3839182AA
:102110008082D9016D937C9309C00E5F1F4F800FA1
:10212000911FF90191838083EB2DFA2FE114F104C3
:1021300031F0D7011396FC93EE93129741C0F093C0
:102140002607E09325073CC06816790608F43C0191
:102150007D0112960D90BC91A02DB7CF80912307E1
:102160009091240788169906E1F466167706C8F45C
:102170008091100190911101009741F48DB79EB7A5
:102180004091140150911501841B950BE817F90734
:10219000C8F4F0932407E0932307F9017183608367
:1021A0000FC0CB010E94F3107C01009759F0A801E9
:1021B000BE010E94F914CE010E948B11C70104C018
:1021C000CE0102C080E090E0DF91CF911F910F918E
:1021D000FF90EF90DF90CF90BF90AF909F908F9047
:1021E0007F906F9008950F931F93CF93DF9382306A
:1021F000910510F482E090E0E0912507F091260728
:1022000020E030E0A0E0B0E0309719F1408151814A
:102210000281138148175907C8F08417950769F49C
:10222000109731F012960C93129713961C9327C0B7
:10223000009325071093260722C02115310519F0B8
:102240004217530718F49A01BD01EF01DF01F801AD
:10225000DBCF21153105F9F0281B390B243031056E
:1022600080F48A819B816115710521F0FB019383C4
:10227000828304C09093260780932507FE0132963F
:1022800044C0FE01E20FF31F819391932250310964
:10229000398328833AC02091230730912407232BC8
:1022A00041F42091120130911301309324072093BF
:1022B000230720911001309111012115310541F4BE
:1022C0002DB73EB74091140150911501241B350BD9
:1022D000E0912307F0912407E217F307A0F42E1BE7
:1022E0003F0B2817390778F0AC014E5F5F4F24177A
:1022F000350748F04E0F5F1F509324074093230784
:102300008193919302C0E0E0F0E0CF01DF91CF91A3
:102310001F910F910895CF93DF93009709F481C027
:10232000FC01329713821282A0912507B0912607F3
:10233000109781F420813181820F931F2091230710
:10234000309124072817390751F5F0932407E093BB
:10235000230767C0ED0120E030E0CE17DF0740F42F
:102360004A815B819E0141155105F1F0EA01F5CFEB
:10237000D383C28340815181840F951FC817D90729
:1023800059F488819981840F951F029691838083E7
:102390008A819B81938382832115310529F4F093EF
:1023A0002607E09325073DC0E901FB83EA834991B5
:1023B0005991C40FD51FEC17FD0761F480819181FD
:1023C000840F951F0296E901998388838281938106
:1023D0009B838A83E0E0F0E012968D919C911397A5
:1023E000009719F0FD01DC01F7CF8D919C911197B9
:1023F0009D012E5F3F4F820F931F20912307309145
:1024000024072817390769F4309729F41092260712
:102410001092250702C013821282B0932407A09362
:102420002307DF91CF9108951F93CF93DF93182F48
:10243000EB0161E00E94240E209711F460E004C0DB
:10244000CF3FD10539F461E0812FDF91CF911F910A
:102450000C94600EE12FF0E0E859FF4FE491E33077
:10246000F9F048F4E130B9F0E230A1F584B58062CA
:1024700084BDC8BD34C0E630E9F0E73019F1E4307E
:1024800049F580918000806280938000D0938B001A
:10249000C0938A0024C084B5806884BDC7BD1FC0B6
:1024A00080918000806880938000D0938900C093E1
:1024B000880015C08091B00080688093B000C09300
:1024C000B3000DC08091B00080628093B000C093D3
:1024D000B40005C0C038D1050CF0B5CFAFCFDF9147
:1024E000CF911F9108950E94590F0E94CF02C4E519
:1024F000D3E10E949D0C2097E1F30E945413F9CF81
:10250000FC0124853585F901E05CFF4F80819181D4
:10251000329620813181821B930B8F739927089506
:10252000DC011C96ED91FC911D97DF01A05CBF4F73
:102530002D913C91119712968D919C91119728178E
:10254000390739F08D919C91E80FF91F808190E057
:1025500008958FEF9FEF0895FC01A485B585FD01D7
:10256000E05CFF4F20813181329680819181281774
:10257000390779F080819181A80FB91F8C91208152
:1025800031812F5F3F4F2F7333273183208390E0BA
:1025900008958FEF9FEF0895FC0181A1882329F012
:1025A000A489B5898C9186FFFBCF11A208950F9362
:1025B0001F93CF93DF93FC01A685B7858D01005C47
:1025C0001F4FE8018881998101968F739927AD018A
:1025D0004E5B5F4FEA012881398128173907D1F313
:1025E000E80128813981A20FB31F6C93A685B785B6
:1025F000A05CBF4F11969C938E93A689B7892C91AE
:1026000081E090E0078C02C0880F991F0A94E2F7DE
:10261000822B8C9381E081A30488F589E02D808151
:102620008064808381E090E0DF91CF911F910F91D2
:10263000089508951F920F920FB60F9211242F93B1
:102640004F935F938F939F93EF93FF938091C0007D
:1026500082FD1CC02091C60080911F079091200729
:10266000409121075091220701968F7399274817AF
:10267000590771F0E0911F07F0912007E152F94FDF
:1026800020839093200780931F0702C08091C6008B
:10269000FF91EF919F918F915F914F912F910F90AB
:1026A0000FBE0F901F90189589E796E00E94801248
:1026B000892B11F00C94191308951F920F920FB6E5
:1026C0000F9211242F933F938F939F93EF93FF9338
:1026D0002091DB063091DC068091DD069091DE06CC
:1026E0002817390731F48091C1008F7D8093C10094
:1026F00014C0E091DD06F091DE06E556F94F208129
:102700008091DD069091DE0601968F739927909354
:10271000DE068093DD062093C600FF91EF919F9126
:102720008F913F912F910F900FBE0F901F90189592
:10273000CF92DF92EF92FF92CF93DF93EC016A0189
:102740007B014115514E6105710509F1EC89FD8947
:1027500081E090E008A002C0880F991F0A94E2F778
:10276000808360E079E08DE390E0A70196010E940C
:10277000A314DA01C9010197A109B109B695A7957A
:10278000979587959C01211580E13807A8F0EC8981
:10279000FD89108260E874E88EE190E0A70196015F
:1027A0000E94A314DA01C9010197A109B109B695E4
:1027B000A795979587959C01E889F9893083EA89DF
:1027C000FB89208319A2EE89FF89408181E090E096
:1027D0009C010C8C02C0220F331F0A94E2F7242BB9
:1027E0002083EE89FF8940819C010D8C02C0220F5D
:1027F000331F0A94E2F7242B2083EE89FF8940815E
:102800009C010E8C02C0220F331F0A94E2F7242B86
:102810002083EE89FF8920810F8C02C0880F991FC9
:102820000A94E2F7809582238083DF91CF91FF9015
:10283000EF90DF90CF900895E9E7F6E013821282DF
:1028400088EE93E0A0E0B0E084839583A683B7830D
:1028500081E393E0918380838FED96E09587848771
:102860008BE996E09787868785EC90E0918B808B4B
:1028700084EC90E0938B828B80EC90E0958B848B42
:1028800081EC90E0978B868B82EC90E0918F808F2B
:1028900086EC90E0938F828F84E0848F83E0858F35
:1028A00087E0868F85E0878F81E080A30895CF92AF
:1028B000DF92EF92FF920F931F93CF93DF936C0100
:1028C000EB017B01E40EF51E00E010E0CE15DF0504
:1028D00061F06991D601ED91FC910190F081E02DBC
:1028E000C6010995080F191FF1CFC801DF91CF91DB
:1028F0001F910F91FF90EF90DF90CF900895DB0133
:102900008F939F930E94C514BF91AF91A29F800D9A
:10291000911DA39F900DB29F900D1124089597FBD8
:10292000072E16F4009407D077FD09D00E94D0142A
:1029300007FC05D03EF4909581959F4F08957095C2
:1029400061957F4F0895A1E21A2EAA1BBB1BFD01C2
:102950000DC0AA1FBB1FEE1FFF1FA217B307E4077E
:10296000F50720F0A21BB30BE40BF50B661F771FD6
:10297000881F991F1A9469F76095709580959095B6
:102980009B01AC01BD01CF0108950E94EA14A59FEF
:10299000900DB49F900DA49F800D911D112408955A
:1029A000AA1BBB1B51E107C0AA1FBB1FA617B70775
:1029B00010F0A61BB70B881F991F5A95A9F7809591
:1029C0009095BC01CD010895EE0FFF1F0590F49185
:1029D000E02D0994A29FB001B39FC001A39F700D89
:1029E000811D1124911DB29F700D811D1124911D17
:1029F0000895FB01DC0102C001900D92415050404E
:082A0000D8F70895F894FFCF08
:102A080013001200030002000F0010000D000E005A
:102A18000000270780007374645F6D7367732F5419
:102A2800696D65006364373136366337346335352D
:102A380032633331316662636332666535613762AA
:102A48006332383900726F7373657269616C5F6DD8
:102A58007367732F546F706963496E666F003061D6
:102A680064353166383866633434383932663863E9
:102A78003130363834303737363436303035007206
:102A88006F7373657269616C5F6D7367732F4C6FD9
:102A9800670031316162643733316332353933333A
:102AA80032363163643631383362643132643632F7
:102AB80039350039663065393862646136353938F8
:102AC800313938366464663533616661376134306C
:102AD800653439007374645F6D7367732F496E745E
:102AE8003136003835323435383665333466626409
:102AF8003763623163303863356635663163613018
:102B0800653537007374645F6D7367732F496E742E
:102B1800333200646135393039666265333738617C
:102B28006561663835653534376538333063633108
:102B3800626237004D6573736167652066726F6DF9
:102B4800206465766963652064726F707065643AA5
:102B5800206D657373616765206C617267657220AB
:102B68007468616E206275666665722E006D6F7698
:102B7800655F746F705F6D6F746F72006D6F7665EF
:102B88005F626F74746F6D5F6D6F746F7200746FD6
:102B9800705F656E636F6465725F64617461006223
:102BA8006F74746F6D5F656E636F6465725F646187
:102BB800746100000000008D00B100F700FA000009
:102BC800000000D704EC05FD00000100000000A58E
:102BD8000496050301060100000000CC03DA06098B
:102BE800010C01000000000F01180121012401005F
:102BF80000000027013B0148014B0100000000D5FF
:102C0800016E0A6D01000000004E01630167016A50
:102C180001726F7373657269616C5F6D7367732F8F
:102C280052657175657374506172616D00000000C2
:0E2C380000D71257148012AC129012CC12006A
:00000001FF
